{
  "_format": "hh-sol-artifact-1",
  "contractName": "MyContract",
  "sourceName": "contracts/MyContract.sol",
  "abi": [
    {
      "inputs": [],
      "stateMutability": "nonpayable",
      "type": "constructor"
    },
    {
      "anonymous": false,
      "inputs": [
        {
          "indexed": true,
          "internalType": "address",
          "name": "owner",
          "type": "address"
        },
        {
          "indexed": true,
          "internalType": "address",
          "name": "approved",
          "type": "address"
        },
        {
          "indexed": true,
          "internalType": "uint256",
          "name": "tokenId",
          "type": "uint256"
        }
      ],
      "name": "Approval",
      "type": "event"
    },
    {
      "anonymous": false,
      "inputs": [
        {
          "indexed": true,
          "internalType": "address",
          "name": "owner",
          "type": "address"
        },
        {
          "indexed": true,
          "internalType": "address",
          "name": "operator",
          "type": "address"
        },
        {
          "indexed": false,
          "internalType": "bool",
          "name": "approved",
          "type": "bool"
        }
      ],
      "name": "ApprovalForAll",
      "type": "event"
    },
    {
      "anonymous": false,
      "inputs": [
        {
          "indexed": true,
          "internalType": "address",
          "name": "delegator",
          "type": "address"
        },
        {
          "indexed": true,
          "internalType": "address",
          "name": "fromDelegate",
          "type": "address"
        },
        {
          "indexed": true,
          "internalType": "address",
          "name": "toDelegate",
          "type": "address"
        }
      ],
      "name": "DelegateChanged",
      "type": "event"
    },
    {
      "anonymous": false,
      "inputs": [
        {
          "indexed": true,
          "internalType": "address",
          "name": "delegate",
          "type": "address"
        },
        {
          "indexed": false,
          "internalType": "uint256",
          "name": "previousBalance",
          "type": "uint256"
        },
        {
          "indexed": false,
          "internalType": "uint256",
          "name": "newBalance",
          "type": "uint256"
        }
      ],
      "name": "DelegateVotesChanged",
      "type": "event"
    },
    {
      "anonymous": false,
      "inputs": [
        {
          "indexed": false,
          "internalType": "address",
          "name": "account",
          "type": "address"
        }
      ],
      "name": "Paused",
      "type": "event"
    },
    {
      "anonymous": false,
      "inputs": [
        {
          "indexed": true,
          "internalType": "bytes32",
          "name": "role",
          "type": "bytes32"
        },
        {
          "indexed": true,
          "internalType": "bytes32",
          "name": "previousAdminRole",
          "type": "bytes32"
        },
        {
          "indexed": true,
          "internalType": "bytes32",
          "name": "newAdminRole",
          "type": "bytes32"
        }
      ],
      "name": "RoleAdminChanged",
      "type": "event"
    },
    {
      "anonymous": false,
      "inputs": [
        {
          "indexed": true,
          "internalType": "bytes32",
          "name": "role",
          "type": "bytes32"
        },
        {
          "indexed": true,
          "internalType": "address",
          "name": "account",
          "type": "address"
        },
        {
          "indexed": true,
          "internalType": "address",
          "name": "sender",
          "type": "address"
        }
      ],
      "name": "RoleGranted",
      "type": "event"
    },
    {
      "anonymous": false,
      "inputs": [
        {
          "indexed": true,
          "internalType": "bytes32",
          "name": "role",
          "type": "bytes32"
        },
        {
          "indexed": true,
          "internalType": "address",
          "name": "account",
          "type": "address"
        },
        {
          "indexed": true,
          "internalType": "address",
          "name": "sender",
          "type": "address"
        }
      ],
      "name": "RoleRevoked",
      "type": "event"
    },
    {
      "anonymous": false,
      "inputs": [
        {
          "indexed": true,
          "internalType": "address",
          "name": "from",
          "type": "address"
        },
        {
          "indexed": true,
          "internalType": "address",
          "name": "to",
          "type": "address"
        },
        {
          "indexed": true,
          "internalType": "uint256",
          "name": "tokenId",
          "type": "uint256"
        }
      ],
      "name": "Transfer",
      "type": "event"
    },
    {
      "anonymous": false,
      "inputs": [
        {
          "indexed": false,
          "internalType": "address",
          "name": "account",
          "type": "address"
        }
      ],
      "name": "Unpaused",
      "type": "event"
    },
    {
      "inputs": [],
      "name": "DEFAULT_ADMIN_ROLE",
      "outputs": [
        {
          "internalType": "bytes32",
          "name": "",
          "type": "bytes32"
        }
      ],
      "stateMutability": "view",
      "type": "function"
    },
    {
      "inputs": [],
      "name": "DOMAIN_SEPARATOR",
      "outputs": [
        {
          "internalType": "bytes32",
          "name": "",
          "type": "bytes32"
        }
      ],
      "stateMutability": "view",
      "type": "function"
    },
    {
      "inputs": [],
      "name": "MINTER_ROLE",
      "outputs": [
        {
          "internalType": "bytes32",
          "name": "",
          "type": "bytes32"
        }
      ],
      "stateMutability": "view",
      "type": "function"
    },
    {
      "inputs": [],
      "name": "PAUSER_ROLE",
      "outputs": [
        {
          "internalType": "bytes32",
          "name": "",
          "type": "bytes32"
        }
      ],
      "stateMutability": "view",
      "type": "function"
    },
    {
      "inputs": [
        {
          "internalType": "address",
          "name": "to",
          "type": "address"
        },
        {
          "internalType": "uint256",
          "name": "tokenId",
          "type": "uint256"
        }
      ],
      "name": "approve",
      "outputs": [],
      "stateMutability": "nonpayable",
      "type": "function"
    },
    {
      "inputs": [
        {
          "internalType": "address",
          "name": "owner",
          "type": "address"
        }
      ],
      "name": "balanceOf",
      "outputs": [
        {
          "internalType": "uint256",
          "name": "",
          "type": "uint256"
        }
      ],
      "stateMutability": "view",
      "type": "function"
    },
    {
      "inputs": [
        {
          "internalType": "uint256",
          "name": "tokenId",
          "type": "uint256"
        }
      ],
      "name": "burn",
      "outputs": [],
      "stateMutability": "nonpayable",
      "type": "function"
    },
    {
      "inputs": [
        {
          "internalType": "address",
          "name": "delegatee",
          "type": "address"
        }
      ],
      "name": "delegate",
      "outputs": [],
      "stateMutability": "nonpayable",
      "type": "function"
    },
    {
      "inputs": [
        {
          "internalType": "address",
          "name": "delegatee",
          "type": "address"
        },
        {
          "internalType": "uint256",
          "name": "nonce",
          "type": "uint256"
        },
        {
          "internalType": "uint256",
          "name": "expiry",
          "type": "uint256"
        },
        {
          "internalType": "uint8",
          "name": "v",
          "type": "uint8"
        },
        {
          "internalType": "bytes32",
          "name": "r",
          "type": "bytes32"
        },
        {
          "internalType": "bytes32",
          "name": "s",
          "type": "bytes32"
        }
      ],
      "name": "delegateBySig",
      "outputs": [],
      "stateMutability": "nonpayable",
      "type": "function"
    },
    {
      "inputs": [
        {
          "internalType": "address",
          "name": "account",
          "type": "address"
        }
      ],
      "name": "delegates",
      "outputs": [
        {
          "internalType": "address",
          "name": "",
          "type": "address"
        }
      ],
      "stateMutability": "view",
      "type": "function"
    },
    {
      "inputs": [
        {
          "internalType": "uint256",
          "name": "tokenId",
          "type": "uint256"
        }
      ],
      "name": "getApproved",
      "outputs": [
        {
          "internalType": "address",
          "name": "",
          "type": "address"
        }
      ],
      "stateMutability": "view",
      "type": "function"
    },
    {
      "inputs": [
        {
          "internalType": "uint256",
          "name": "blockNumber",
          "type": "uint256"
        }
      ],
      "name": "getPastTotalSupply",
      "outputs": [
        {
          "internalType": "uint256",
          "name": "",
          "type": "uint256"
        }
      ],
      "stateMutability": "view",
      "type": "function"
    },
    {
      "inputs": [
        {
          "internalType": "address",
          "name": "account",
          "type": "address"
        },
        {
          "internalType": "uint256",
          "name": "blockNumber",
          "type": "uint256"
        }
      ],
      "name": "getPastVotes",
      "outputs": [
        {
          "internalType": "uint256",
          "name": "",
          "type": "uint256"
        }
      ],
      "stateMutability": "view",
      "type": "function"
    },
    {
      "inputs": [
        {
          "internalType": "bytes32",
          "name": "role",
          "type": "bytes32"
        }
      ],
      "name": "getRoleAdmin",
      "outputs": [
        {
          "internalType": "bytes32",
          "name": "",
          "type": "bytes32"
        }
      ],
      "stateMutability": "view",
      "type": "function"
    },
    {
      "inputs": [
        {
          "internalType": "address",
          "name": "account",
          "type": "address"
        }
      ],
      "name": "getVotes",
      "outputs": [
        {
          "internalType": "uint256",
          "name": "",
          "type": "uint256"
        }
      ],
      "stateMutability": "view",
      "type": "function"
    },
    {
      "inputs": [
        {
          "internalType": "bytes32",
          "name": "role",
          "type": "bytes32"
        },
        {
          "internalType": "address",
          "name": "account",
          "type": "address"
        }
      ],
      "name": "grantRole",
      "outputs": [],
      "stateMutability": "nonpayable",
      "type": "function"
    },
    {
      "inputs": [
        {
          "internalType": "bytes32",
          "name": "role",
          "type": "bytes32"
        },
        {
          "internalType": "address",
          "name": "account",
          "type": "address"
        }
      ],
      "name": "hasRole",
      "outputs": [
        {
          "internalType": "bool",
          "name": "",
          "type": "bool"
        }
      ],
      "stateMutability": "view",
      "type": "function"
    },
    {
      "inputs": [
        {
          "internalType": "address",
          "name": "owner",
          "type": "address"
        },
        {
          "internalType": "address",
          "name": "operator",
          "type": "address"
        }
      ],
      "name": "isApprovedForAll",
      "outputs": [
        {
          "internalType": "bool",
          "name": "",
          "type": "bool"
        }
      ],
      "stateMutability": "view",
      "type": "function"
    },
    {
      "inputs": [],
      "name": "name",
      "outputs": [
        {
          "internalType": "string",
          "name": "",
          "type": "string"
        }
      ],
      "stateMutability": "view",
      "type": "function"
    },
    {
      "inputs": [
        {
          "internalType": "address",
          "name": "owner",
          "type": "address"
        }
      ],
      "name": "nonces",
      "outputs": [
        {
          "internalType": "uint256",
          "name": "",
          "type": "uint256"
        }
      ],
      "stateMutability": "view",
      "type": "function"
    },
    {
      "inputs": [
        {
          "internalType": "uint256",
          "name": "tokenId",
          "type": "uint256"
        }
      ],
      "name": "ownerOf",
      "outputs": [
        {
          "internalType": "address",
          "name": "",
          "type": "address"
        }
      ],
      "stateMutability": "view",
      "type": "function"
    },
    {
      "inputs": [],
      "name": "pause",
      "outputs": [],
      "stateMutability": "nonpayable",
      "type": "function"
    },
    {
      "inputs": [],
      "name": "paused",
      "outputs": [
        {
          "internalType": "bool",
          "name": "",
          "type": "bool"
        }
      ],
      "stateMutability": "view",
      "type": "function"
    },
    {
      "inputs": [
        {
          "internalType": "bytes32",
          "name": "role",
          "type": "bytes32"
        },
        {
          "internalType": "address",
          "name": "account",
          "type": "address"
        }
      ],
      "name": "renounceRole",
      "outputs": [],
      "stateMutability": "nonpayable",
      "type": "function"
    },
    {
      "inputs": [
        {
          "internalType": "bytes32",
          "name": "role",
          "type": "bytes32"
        },
        {
          "internalType": "address",
          "name": "account",
          "type": "address"
        }
      ],
      "name": "revokeRole",
      "outputs": [],
      "stateMutability": "nonpayable",
      "type": "function"
    },
    {
      "inputs": [
        {
          "internalType": "address",
          "name": "to",
          "type": "address"
        },
        {
          "internalType": "string",
          "name": "uri",
          "type": "string"
        }
      ],
      "name": "safeMint",
      "outputs": [],
      "stateMutability": "nonpayable",
      "type": "function"
    },
    {
      "inputs": [
        {
          "internalType": "address",
          "name": "from",
          "type": "address"
        },
        {
          "internalType": "address",
          "name": "to",
          "type": "address"
        },
        {
          "internalType": "uint256",
          "name": "tokenId",
          "type": "uint256"
        }
      ],
      "name": "safeTransferFrom",
      "outputs": [],
      "stateMutability": "nonpayable",
      "type": "function"
    },
    {
      "inputs": [
        {
          "internalType": "address",
          "name": "from",
          "type": "address"
        },
        {
          "internalType": "address",
          "name": "to",
          "type": "address"
        },
        {
          "internalType": "uint256",
          "name": "tokenId",
          "type": "uint256"
        },
        {
          "internalType": "bytes",
          "name": "data",
          "type": "bytes"
        }
      ],
      "name": "safeTransferFrom",
      "outputs": [],
      "stateMutability": "nonpayable",
      "type": "function"
    },
    {
      "inputs": [
        {
          "internalType": "address",
          "name": "operator",
          "type": "address"
        },
        {
          "internalType": "bool",
          "name": "approved",
          "type": "bool"
        }
      ],
      "name": "setApprovalForAll",
      "outputs": [],
      "stateMutability": "nonpayable",
      "type": "function"
    },
    {
      "inputs": [
        {
          "internalType": "bytes4",
          "name": "interfaceId",
          "type": "bytes4"
        }
      ],
      "name": "supportsInterface",
      "outputs": [
        {
          "internalType": "bool",
          "name": "",
          "type": "bool"
        }
      ],
      "stateMutability": "view",
      "type": "function"
    },
    {
      "inputs": [],
      "name": "symbol",
      "outputs": [
        {
          "internalType": "string",
          "name": "",
          "type": "string"
        }
      ],
      "stateMutability": "view",
      "type": "function"
    },
    {
      "inputs": [
        {
          "internalType": "uint256",
          "name": "index",
          "type": "uint256"
        }
      ],
      "name": "tokenByIndex",
      "outputs": [
        {
          "internalType": "uint256",
          "name": "",
          "type": "uint256"
        }
      ],
      "stateMutability": "view",
      "type": "function"
    },
    {
      "inputs": [
        {
          "internalType": "address",
          "name": "owner",
          "type": "address"
        },
        {
          "internalType": "uint256",
          "name": "index",
          "type": "uint256"
        }
      ],
      "name": "tokenOfOwnerByIndex",
      "outputs": [
        {
          "internalType": "uint256",
          "name": "",
          "type": "uint256"
        }
      ],
      "stateMutability": "view",
      "type": "function"
    },
    {
      "inputs": [
        {
          "internalType": "uint256",
          "name": "tokenId",
          "type": "uint256"
        }
      ],
      "name": "tokenURI",
      "outputs": [
        {
          "internalType": "string",
          "name": "",
          "type": "string"
        }
      ],
      "stateMutability": "view",
      "type": "function"
    },
    {
      "inputs": [],
      "name": "totalSupply",
      "outputs": [
        {
          "internalType": "uint256",
          "name": "",
          "type": "uint256"
        }
      ],
      "stateMutability": "view",
      "type": "function"
    },
    {
      "inputs": [
        {
          "internalType": "address",
          "name": "from",
          "type": "address"
        },
        {
          "internalType": "address",
          "name": "to",
          "type": "address"
        },
        {
          "internalType": "uint256",
          "name": "tokenId",
          "type": "uint256"
        }
      ],
      "name": "transferFrom",
      "outputs": [],
      "stateMutability": "nonpayable",
      "type": "function"
    },
    {
      "inputs": [],
      "name": "unpause",
      "outputs": [],
      "stateMutability": "nonpayable",
      "type": "function"
    }
  ],
  "bytecode": "0x6101406040523480156200001257600080fd5b506040518060400160405280600a81526020017f4d79436f6e7472616374000000000000000000000000000000000000000000008152506040518060400160405280600181526020017f31000000000000000000000000000000000000000000000000000000000000008152506040518060400160405280600a81526020017f4d79436f6e7472616374000000000000000000000000000000000000000000008152506040518060400160405280600381526020017f4d594300000000000000000000000000000000000000000000000000000000008152508160009080519060200190620001039291906200040c565b5080600190805190602001906200011c9291906200040c565b5050506000600660006101000a81548160ff02191690831515021790555060008280519060200120905060008280519060200120905060007f8b73c3c69bb8fe3d512ecc4cf759cc79239f7b179b0ffacaa9a75d522b39400f90508260e081815250508161010081815250504660a08181525050620001a38184846200026b60201b60201c565b608081815250503073ffffffffffffffffffffffffffffffffffffffff1660c08173ffffffffffffffffffffffffffffffffffffffff16815250508061012081815250505050505050620002016000801b33620002a760201b60201c565b620002337f65d7a28e3265b37a6474929f336521b332c1681b933f6cb9f3376673440d862a33620002a760201b60201c565b620002657f9f2df0fed2c77648de5860a4cc508cd0818c85b8b8a1ab4ceeef8d981c8956a633620002a760201b60201c565b620005f9565b600083838346306040516020016200028895949392919062000537565b6040516020818303038152906040528051906020012090509392505050565b620002b982826200039960201b60201c565b62000395576001600b600084815260200190815260200160002060000160008373ffffffffffffffffffffffffffffffffffffffff1673ffffffffffffffffffffffffffffffffffffffff16815260200190815260200160002060006101000a81548160ff0219169083151502179055506200033a6200040460201b60201c565b73ffffffffffffffffffffffffffffffffffffffff168173ffffffffffffffffffffffffffffffffffffffff16837f2f8788117e7eff1d82e926ec794901d17c78024a50270940304540a733656f0d60405160405180910390a45b5050565b6000600b600084815260200190815260200160002060000160008373ffffffffffffffffffffffffffffffffffffffff1673ffffffffffffffffffffffffffffffffffffffff16815260200190815260200160002060009054906101000a900460ff16905092915050565b600033905090565b8280546200041a90620005c3565b90600052602060002090601f0160209004810192826200043e57600085556200048a565b82601f106200045957805160ff19168380011785556200048a565b828001600101855582156200048a579182015b82811115620004895782518255916020019190600101906200046c565b5b5090506200049991906200049d565b5090565b5b80821115620004b85760008160009055506001016200049e565b5090565b6000819050919050565b620004d181620004bc565b82525050565b6000819050919050565b620004ec81620004d7565b82525050565b600073ffffffffffffffffffffffffffffffffffffffff82169050919050565b60006200051f82620004f2565b9050919050565b620005318162000512565b82525050565b600060a0820190506200054e6000830188620004c6565b6200055d6020830187620004c6565b6200056c6040830186620004c6565b6200057b6060830185620004e1565b6200058a608083018462000526565b9695505050505050565b7f4e487b7100000000000000000000000000000000000000000000000000000000600052602260045260246000fd5b60006002820490506001821680620005dc57607f821691505b60208210811415620005f357620005f262000594565b5b50919050565b60805160a05160c05160e0516101005161012051615c296200064960003960006119d101526000611a13015260006119f2015260006119270152600061197d015260006119a60152615c296000f3fe608060405234801561001057600080fd5b50600436106102275760003560e01c80635c975abb11610130578063a217fddf116100b8578063d204c45e1161007c578063d204c45e146106ac578063d5391393146106c8578063d547741f146106e6578063e63ab1e914610702578063e985e9c51461072057610227565b8063a217fddf1461060a578063a22cb46514610628578063b88d4fde14610644578063c3cda52014610660578063c87b56dd1461067c57610227565b80638456cb59116100ff5780638456cb59146105525780638e539e8c1461055c57806391d148541461058c57806395d89b41146105bc5780639ab24eb0146105da57610227565b80635c975abb146104a45780636352211e146104c257806370a08231146104f25780637ecebe001461052257610227565b80633644e515116101b357806342842e0e1161018257806342842e0e146103f057806342966c681461040c5780634f6ccce714610428578063587cde1e146104585780635c19a95c1461048857610227565b80633644e5151461037c57806336568abe1461039a5780633a46b1a8146103b65780633f4ba83a146103e657610227565b806318160ddd116101fa57806318160ddd146102c657806323b872dd146102e4578063248a9ca3146103005780632f2ff15d146103305780632f745c591461034c57610227565b806301ffc9a71461022c57806306fdde031461025c578063081812fc1461027a578063095ea7b3146102aa575b600080fd5b61024660048036038101906102419190613f2f565b610750565b6040516102539190613f77565b60405180910390f35b610264610762565b604051610271919061402b565b60405180910390f35b610294600480360381019061028f9190614083565b6107f4565b6040516102a191906140f1565b60405180910390f35b6102c460048036038101906102bf9190614138565b61083a565b005b6102ce610952565b6040516102db9190614187565b60405180910390f35b6102fe60048036038101906102f991906141a2565b61095f565b005b61031a6004803603810190610315919061422b565b6109bf565b6040516103279190614267565b60405180910390f35b61034a60048036038101906103459190614282565b6109df565b005b61036660048036038101906103619190614138565b610a00565b6040516103739190614187565b60405180910390f35b610384610aa5565b6040516103919190614267565b60405180910390f35b6103b460048036038101906103af9190614282565b610ab4565b005b6103d060048036038101906103cb9190614138565b610b37565b6040516103dd9190614187565b60405180910390f35b6103ee610b92565b005b61040a600480360381019061040591906141a2565b610bc7565b005b61042660048036038101906104219190614083565b610be7565b005b610442600480360381019061043d9190614083565b610c43565b60405161044f9190614187565b60405180910390f35b610472600480360381019061046d91906142c2565b610cb4565b60405161047f91906140f1565b60405180910390f35b6104a2600480360381019061049d91906142c2565b610d1d565b005b6104ac610d37565b6040516104b99190613f77565b60405180910390f35b6104dc60048036038101906104d79190614083565b610d4e565b6040516104e991906140f1565b60405180910390f35b61050c600480360381019061050791906142c2565b610e00565b6040516105199190614187565b60405180910390f35b61053c600480360381019061053791906142c2565b610eb8565b6040516105499190614187565b60405180910390f35b61055a610f08565b005b61057660048036038101906105719190614083565b610f3d565b6040516105839190614187565b60405180910390f35b6105a660048036038101906105a19190614282565b610f9c565b6040516105b39190613f77565b60405180910390f35b6105c4611007565b6040516105d1919061402b565b60405180910390f35b6105f460048036038101906105ef91906142c2565b611099565b6040516106019190614187565b60405180910390f35b6106126110e9565b60405161061f9190614267565b60405180910390f35b610642600480360381019061063d919061431b565b6110f0565b005b61065e60048036038101906106599190614490565b611106565b005b61067a6004803603810190610675919061454c565b611168565b005b61069660048036038101906106919190614083565b61126c565b6040516106a3919061402b565b60405180910390f35b6106c660048036038101906106c1919061467a565b61127e565b005b6106d06112af565b6040516106dd9190614267565b60405180910390f35b61070060048036038101906106fb9190614282565b6112d3565b005b61070a6112f4565b6040516107179190614267565b60405180910390f35b61073a600480360381019061073591906146d6565b611318565b6040516107479190613f77565b60405180910390f35b600061075b826113ac565b9050919050565b60606000805461077190614745565b80601f016020809104026020016040519081016040528092919081815260200182805461079d90614745565b80156107ea5780601f106107bf576101008083540402835291602001916107ea565b820191906000526020600020905b8154815290600101906020018083116107cd57829003601f168201915b5050505050905090565b60006107ff82611426565b6004600083815260200190815260200160002060009054906101000a900473ffffffffffffffffffffffffffffffffffffffff169050919050565b600061084582610d4e565b90508073ffffffffffffffffffffffffffffffffffffffff168373ffffffffffffffffffffffffffffffffffffffff1614156108b6576040517f08c379a00000000000000000000000000000000000000000000000000000000081526004016108ad906147e9565b60405180910390fd5b8073ffffffffffffffffffffffffffffffffffffffff166108d5611471565b73ffffffffffffffffffffffffffffffffffffffff1614806109045750610903816108fe611471565b611318565b5b610943576040517f08c379a000000000000000000000000000000000000000000000000000000000815260040161093a9061487b565b60405180910390fd5b61094d8383611479565b505050565b6000600e80549050905090565b61097061096a611471565b82611532565b6109af576040517f08c379a00000000000000000000000000000000000000000000000000000000081526004016109a69061490d565b60405180910390fd5b6109ba8383836115c7565b505050565b6000600b6000838152602001908152602001600020600101549050919050565b6109e8826109bf565b6109f18161182e565b6109fb8383611842565b505050565b6000610a0b83610e00565b8210610a4c576040517f08c379a0000000000000000000000000000000000000000000000000000000008152600401610a439061499f565b60405180910390fd5b600c60008473ffffffffffffffffffffffffffffffffffffffff1673ffffffffffffffffffffffffffffffffffffffff168152602001908152602001600020600083815260200190815260200160002054905092915050565b6000610aaf611923565b905090565b610abc611471565b73ffffffffffffffffffffffffffffffffffffffff168173ffffffffffffffffffffffffffffffffffffffff1614610b29576040517f08c379a0000000000000000000000000000000000000000000000000000000008152600401610b2090614a31565b60405180910390fd5b610b338282611a3d565b5050565b6000610b8a82600860008673ffffffffffffffffffffffffffffffffffffffff1673ffffffffffffffffffffffffffffffffffffffff168152602001908152602001600020611b1f90919063ffffffff16565b905092915050565b7f65d7a28e3265b37a6474929f336521b332c1681b933f6cb9f3376673440d862a610bbc8161182e565b610bc4611c77565b50565b610be283838360405180602001604052806000815250611106565b505050565b610bf8610bf2611471565b82611532565b610c37576040517f08c379a0000000000000000000000000000000000000000000000000000000008152600401610c2e9061490d565b60405180910390fd5b610c4081611cda565b50565b6000610c4d610952565b8210610c8e576040517f08c379a0000000000000000000000000000000000000000000000000000000008152600401610c8590614ac3565b60405180910390fd5b600e8281548110610ca257610ca1614ae3565b5b90600052602060002001549050919050565b6000600760008373ffffffffffffffffffffffffffffffffffffffff1673ffffffffffffffffffffffffffffffffffffffff16815260200190815260200160002060009054906101000a900473ffffffffffffffffffffffffffffffffffffffff169050919050565b6000610d27611471565b9050610d338183611ce6565b5050565b6000600660009054906101000a900460ff16905090565b6000806002600084815260200190815260200160002060009054906101000a900473ffffffffffffffffffffffffffffffffffffffff169050600073ffffffffffffffffffffffffffffffffffffffff168173ffffffffffffffffffffffffffffffffffffffff161415610df7576040517f08c379a0000000000000000000000000000000000000000000000000000000008152600401610dee90614b5e565b60405180910390fd5b80915050919050565b60008073ffffffffffffffffffffffffffffffffffffffff168273ffffffffffffffffffffffffffffffffffffffff161415610e71576040517f08c379a0000000000000000000000000000000000000000000000000000000008152600401610e6890614bf0565b60405180910390fd5b600360008373ffffffffffffffffffffffffffffffffffffffff1673ffffffffffffffffffffffffffffffffffffffff168152602001908152602001600020549050919050565b6000610f01600a60008473ffffffffffffffffffffffffffffffffffffffff1673ffffffffffffffffffffffffffffffffffffffff168152602001908152602001600020611dfa565b9050919050565b7f65d7a28e3265b37a6474929f336521b332c1681b933f6cb9f3376673440d862a610f328161182e565b610f3a611e08565b50565b6000438210610f81576040517f08c379a0000000000000000000000000000000000000000000000000000000008152600401610f7890614c5c565b60405180910390fd5b610f95826009611b1f90919063ffffffff16565b9050919050565b6000600b600084815260200190815260200160002060000160008373ffffffffffffffffffffffffffffffffffffffff1673ffffffffffffffffffffffffffffffffffffffff16815260200190815260200160002060009054906101000a900460ff16905092915050565b60606001805461101690614745565b80601f016020809104026020016040519081016040528092919081815260200182805461104290614745565b801561108f5780601f106110645761010080835404028352916020019161108f565b820191906000526020600020905b81548152906001019060200180831161107257829003601f168201915b5050505050905090565b60006110e2600860008473ffffffffffffffffffffffffffffffffffffffff1673ffffffffffffffffffffffffffffffffffffffff168152602001908152602001600020611e6b565b9050919050565b6000801b81565b6111026110fb611471565b8383611f06565b5050565b611117611111611471565b83611532565b611156576040517f08c379a000000000000000000000000000000000000000000000000000000000815260040161114d9061490d565b60405180910390fd5b61116284848484612073565b50505050565b834211156111ab576040517f08c379a00000000000000000000000000000000000000000000000000000000081526004016111a290614cc8565b60405180910390fd5b600061120d6112057fe48329057bfd03d55e49b547132e39cffd9c1820ad7b9d4c5307691425d15adf8989896040516020016111ea9493929190614ce8565b604051602081830303815290604052805190602001206120cf565b8585856120e9565b905061121881612114565b8614611259576040517f08c379a000000000000000000000000000000000000000000000000000000000815260040161125090614d79565b60405180910390fd5b6112638188611ce6565b50505050505050565b606061127782612172565b9050919050565b600061128a6011611dfa565b90506112966011612285565b6112a0838261229b565b6112aa81836122b9565b505050565b7f9f2df0fed2c77648de5860a4cc508cd0818c85b8b8a1ab4ceeef8d981c8956a681565b6112dc826109bf565b6112e58161182e565b6112ef8383611a3d565b505050565b7f65d7a28e3265b37a6474929f336521b332c1681b933f6cb9f3376673440d862a81565b6000600560008473ffffffffffffffffffffffffffffffffffffffff1673ffffffffffffffffffffffffffffffffffffffff16815260200190815260200160002060008373ffffffffffffffffffffffffffffffffffffffff1673ffffffffffffffffffffffffffffffffffffffff16815260200190815260200160002060009054906101000a900460ff16905092915050565b60007f780e9d63000000000000000000000000000000000000000000000000000000007bffffffffffffffffffffffffffffffffffffffffffffffffffffffff1916827bffffffffffffffffffffffffffffffffffffffffffffffffffffffff1916148061141f575061141e8261232d565b5b9050919050565b61142f816123a7565b61146e576040517f08c379a000000000000000000000000000000000000000000000000000000000815260040161146590614b5e565b60405180910390fd5b50565b600033905090565b816004600083815260200190815260200160002060006101000a81548173ffffffffffffffffffffffffffffffffffffffff021916908373ffffffffffffffffffffffffffffffffffffffff160217905550808273ffffffffffffffffffffffffffffffffffffffff166114ec83610d4e565b73ffffffffffffffffffffffffffffffffffffffff167f8c5be1e5ebec7d5bd14f71427d1e84f3dd0314c0f7b2291e5b200ac8c7c3b92560405160405180910390a45050565b60008061153e83610d4e565b90508073ffffffffffffffffffffffffffffffffffffffff168473ffffffffffffffffffffffffffffffffffffffff161480611580575061157f8185611318565b5b806115be57508373ffffffffffffffffffffffffffffffffffffffff166115a6846107f4565b73ffffffffffffffffffffffffffffffffffffffff16145b91505092915050565b8273ffffffffffffffffffffffffffffffffffffffff166115e782610d4e565b73ffffffffffffffffffffffffffffffffffffffff161461163d576040517f08c379a000000000000000000000000000000000000000000000000000000000815260040161163490614e0b565b60405180910390fd5b600073ffffffffffffffffffffffffffffffffffffffff168273ffffffffffffffffffffffffffffffffffffffff1614156116ad576040517f08c379a00000000000000000000000000000000000000000000000000000000081526004016116a490614e9d565b60405180910390fd5b6116b8838383612413565b6116c3600082611479565b6001600360008573ffffffffffffffffffffffffffffffffffffffff1673ffffffffffffffffffffffffffffffffffffffff16815260200190815260200160002060008282546117139190614eec565b925050819055506001600360008473ffffffffffffffffffffffffffffffffffffffff1673ffffffffffffffffffffffffffffffffffffffff168152602001908152602001600020600082825461176a9190614f20565b92505081905550816002600083815260200190815260200160002060006101000a81548173ffffffffffffffffffffffffffffffffffffffff021916908373ffffffffffffffffffffffffffffffffffffffff160217905550808273ffffffffffffffffffffffffffffffffffffffff168473ffffffffffffffffffffffffffffffffffffffff167fddf252ad1be2c89b69c2b068fc378daa952ba7f163c4a11628f55a4df523b3ef60405160405180910390a461182983838361242b565b505050565b61183f8161183a611471565b61243b565b50565b61184c8282610f9c565b61191f576001600b600084815260200190815260200160002060000160008373ffffffffffffffffffffffffffffffffffffffff1673ffffffffffffffffffffffffffffffffffffffff16815260200190815260200160002060006101000a81548160ff0219169083151502179055506118c4611471565b73ffffffffffffffffffffffffffffffffffffffff168173ffffffffffffffffffffffffffffffffffffffff16837f2f8788117e7eff1d82e926ec794901d17c78024a50270940304540a733656f0d60405160405180910390a45b5050565b60007f000000000000000000000000000000000000000000000000000000000000000073ffffffffffffffffffffffffffffffffffffffff163073ffffffffffffffffffffffffffffffffffffffff1614801561199f57507f000000000000000000000000000000000000000000000000000000000000000046145b156119cc577f00000000000000000000000000000000000000000000000000000000000000009050611a3a565b611a377f00000000000000000000000000000000000000000000000000000000000000007f00000000000000000000000000000000000000000000000000000000000000007f00000000000000000000000000000000000000000000000000000000000000006124d8565b90505b90565b611a478282610f9c565b15611b1b576000600b600084815260200190815260200160002060000160008373ffffffffffffffffffffffffffffffffffffffff1673ffffffffffffffffffffffffffffffffffffffff16815260200190815260200160002060006101000a81548160ff021916908315150217905550611ac0611471565b73ffffffffffffffffffffffffffffffffffffffff168173ffffffffffffffffffffffffffffffffffffffff16837ff6391f5c32d9c69d2a47ea670b442974b53935d1edc7fd64eb21e047a839171b60405160405180910390a45b5050565b6000438210611b63576040517f08c379a0000000000000000000000000000000000000000000000000000000008152600401611b5a90614fc2565b60405180910390fd5b60008360000180549050905060005b81811015611be7576000611b868284612512565b905084866000018281548110611b9f57611b9e614ae3565b5b9060005260206000200160000160009054906101000a900463ffffffff1663ffffffff161115611bd157809250611be1565b600181611bde9190614f20565b91505b50611b72565b60008214611c4c5784600001600183611c009190614eec565b81548110611c1157611c10614ae3565b5b9060005260206000200160000160049054906101000a90047bffffffffffffffffffffffffffffffffffffffffffffffffffffffff16611c4f565b60005b7bffffffffffffffffffffffffffffffffffffffffffffffffffffffff169250505092915050565b611c7f612538565b6000600660006101000a81548160ff0219169083151502179055507f5db9ee0a495bf2e6ff9c91a7834c1ba4fdd244a5e8aa4e537bd38aeae4b073aa611cc3611471565b604051611cd091906140f1565b60405180910390a1565b611ce381612581565b50565b6000611cf183610cb4565b905081600760008573ffffffffffffffffffffffffffffffffffffffff1673ffffffffffffffffffffffffffffffffffffffff16815260200190815260200160002060006101000a81548173ffffffffffffffffffffffffffffffffffffffff021916908373ffffffffffffffffffffffffffffffffffffffff1602179055508173ffffffffffffffffffffffffffffffffffffffff168173ffffffffffffffffffffffffffffffffffffffff168473ffffffffffffffffffffffffffffffffffffffff167f3134e8a2e6d97e929a7e54011ea5485d7d196dd5f0ba4d4ef95803e8e3fc257f60405160405180910390a4611df58183611df0866125d4565b6125e6565b505050565b600081600001549050919050565b611e106127f3565b6001600660006101000a81548160ff0219169083151502179055507f62e78cea01bee320cd4e420270b5ea74000d11b0c9f74754ebdbfc544b05a258611e54611471565b604051611e6191906140f1565b60405180910390a1565b6000808260000180549050905060008114611edd5782600001600182611e919190614eec565b81548110611ea257611ea1614ae3565b5b9060005260206000200160000160049054906101000a90047bffffffffffffffffffffffffffffffffffffffffffffffffffffffff16611ee0565b60005b7bffffffffffffffffffffffffffffffffffffffffffffffffffffffff16915050919050565b8173ffffffffffffffffffffffffffffffffffffffff168373ffffffffffffffffffffffffffffffffffffffff161415611f75576040517f08c379a0000000000000000000000000000000000000000000000000000000008152600401611f6c9061502e565b60405180910390fd5b80600560008573ffffffffffffffffffffffffffffffffffffffff1673ffffffffffffffffffffffffffffffffffffffff16815260200190815260200160002060008473ffffffffffffffffffffffffffffffffffffffff1673ffffffffffffffffffffffffffffffffffffffff16815260200190815260200160002060006101000a81548160ff0219169083151502179055508173ffffffffffffffffffffffffffffffffffffffff168373ffffffffffffffffffffffffffffffffffffffff167f17307eab39ab6107e8899845ad3d59bd9653f200f220920489ca2b5937696c31836040516120669190613f77565b60405180910390a3505050565b61207e8484846115c7565b61208a8484848461283d565b6120c9576040517f08c379a00000000000000000000000000000000000000000000000000000000081526004016120c0906150c0565b60405180910390fd5b50505050565b60006120e26120dc611923565b836129d4565b9050919050565b60008060006120fa87878787612a07565b9150915061210781612b14565b8192505050949350505050565b600080600a60008473ffffffffffffffffffffffffffffffffffffffff1673ffffffffffffffffffffffffffffffffffffffff168152602001908152602001600020905061216181611dfa565b915061216c81612285565b50919050565b606061217d82611426565b600060106000848152602001908152602001600020805461219d90614745565b80601f01602080910402602001604051908101604052809291908181526020018280546121c990614745565b80156122165780601f106121eb57610100808354040283529160200191612216565b820191906000526020600020905b8154815290600101906020018083116121f957829003601f168201915b505050505090506000612227612ce9565b905060008151141561223d578192505050612280565b60008251111561227257808260405160200161225a92919061511c565b60405160208183030381529060405292505050612280565b61227b84612d00565b925050505b919050565b6001816000016000828254019250508190555050565b6122b5828260405180602001604052806000815250612d68565b5050565b6122c2826123a7565b612301576040517f08c379a00000000000000000000000000000000000000000000000000000000081526004016122f8906151b2565b60405180910390fd5b80601060008481526020019081526020016000209080519060200190612328929190613de0565b505050565b60007f7965db0b000000000000000000000000000000000000000000000000000000007bffffffffffffffffffffffffffffffffffffffffffffffffffffffff1916827bffffffffffffffffffffffffffffffffffffffffffffffffffffffff191614806123a0575061239f82612dc3565b5b9050919050565b60008073ffffffffffffffffffffffffffffffffffffffff166002600084815260200190815260200160002060009054906101000a900473ffffffffffffffffffffffffffffffffffffffff1673ffffffffffffffffffffffffffffffffffffffff1614159050919050565b61241b6127f3565b612426838383612ea5565b505050565b612436838383612fb9565b505050565b6124458282610f9c565b6124d45761246a8173ffffffffffffffffffffffffffffffffffffffff166014612fd5565b6124788360001c6020612fd5565b60405160200161248992919061526a565b6040516020818303038152906040526040517f08c379a00000000000000000000000000000000000000000000000000000000081526004016124cb919061402b565b60405180910390fd5b5050565b600083838346306040516020016124f39594939291906152a4565b6040516020818303038152906040528051906020012090509392505050565b600060028284186125239190615326565b8284166125309190614f20565b905092915050565b612540610d37565b61257f576040517f08c379a0000000000000000000000000000000000000000000000000000000008152600401612576906153a3565b60405180910390fd5b565b61258a81613211565b60006010600083815260200190815260200160002080546125aa90614745565b9050146125d1576010600082815260200190815260200160002060006125d09190613e66565b5b50565b60006125df82610e00565b9050919050565b8173ffffffffffffffffffffffffffffffffffffffff168373ffffffffffffffffffffffffffffffffffffffff16141580156126225750600081115b156127ee57600073ffffffffffffffffffffffffffffffffffffffff168373ffffffffffffffffffffffffffffffffffffffff161461270a576000806126b361332e84600860008973ffffffffffffffffffffffffffffffffffffffff1673ffffffffffffffffffffffffffffffffffffffff1681526020019081526020016000206133449092919063ffffffff16565b915091508473ffffffffffffffffffffffffffffffffffffffff167fdec2bacdd2f05b59de34da9b523dff8be42e5e38e818c82fdb0bae774387a72483836040516126ff9291906153c3565b60405180910390a250505b600073ffffffffffffffffffffffffffffffffffffffff168273ffffffffffffffffffffffffffffffffffffffff16146127ed5760008061279661337284600860008873ffffffffffffffffffffffffffffffffffffffff1673ffffffffffffffffffffffffffffffffffffffff1681526020019081526020016000206133449092919063ffffffff16565b915091508373ffffffffffffffffffffffffffffffffffffffff167fdec2bacdd2f05b59de34da9b523dff8be42e5e38e818c82fdb0bae774387a72483836040516127e29291906153c3565b60405180910390a250505b5b505050565b6127fb610d37565b1561283b576040517f08c379a000000000000000000000000000000000000000000000000000000000815260040161283290615438565b60405180910390fd5b565b600061285e8473ffffffffffffffffffffffffffffffffffffffff16613388565b156129c7578373ffffffffffffffffffffffffffffffffffffffff1663150b7a02612887611471565b8786866040518563ffffffff1660e01b81526004016128a994939291906154ad565b602060405180830381600087803b1580156128c357600080fd5b505af19250505080156128f457506040513d601f19601f820116820180604052508101906128f1919061550e565b60015b612977573d8060008114612924576040519150601f19603f3d011682016040523d82523d6000602084013e612929565b606091505b5060008151141561296f576040517f08c379a0000000000000000000000000000000000000000000000000000000008152600401612966906150c0565b60405180910390fd5b805181602001fd5b63150b7a0260e01b7bffffffffffffffffffffffffffffffffffffffffffffffffffffffff1916817bffffffffffffffffffffffffffffffffffffffffffffffffffffffff1916149150506129cc565b600190505b949350505050565b600082826040516020016129e99291906155a8565b60405160208183030381529060405280519060200120905092915050565b6000807f7fffffffffffffffffffffffffffffff5d576e7357a4501ddfe92f46681b20a08360001c1115612a42576000600391509150612b0b565b601b8560ff1614158015612a5a5750601c8560ff1614155b15612a6c576000600491509150612b0b565b600060018787878760405160008152602001604052604051612a9194939291906155ee565b6020604051602081039080840390855afa158015612ab3573d6000803e3d6000fd5b505050602060405103519050600073ffffffffffffffffffffffffffffffffffffffff168173ffffffffffffffffffffffffffffffffffffffff161415612b0257600060019250925050612b0b565b80600092509250505b94509492505050565b60006004811115612b2857612b27615633565b5b816004811115612b3b57612b3a615633565b5b1415612b4657612ce6565b60016004811115612b5a57612b59615633565b5b816004811115612b6d57612b6c615633565b5b1415612bae576040517f08c379a0000000000000000000000000000000000000000000000000000000008152600401612ba5906156ae565b60405180910390fd5b60026004811115612bc257612bc1615633565b5b816004811115612bd557612bd4615633565b5b1415612c16576040517f08c379a0000000000000000000000000000000000000000000000000000000008152600401612c0d9061571a565b60405180910390fd5b60036004811115612c2a57612c29615633565b5b816004811115612c3d57612c3c615633565b5b1415612c7e576040517f08c379a0000000000000000000000000000000000000000000000000000000008152600401612c75906157ac565b60405180910390fd5b600480811115612c9157612c90615633565b5b816004811115612ca457612ca3615633565b5b1415612ce5576040517f08c379a0000000000000000000000000000000000000000000000000000000008152600401612cdc9061583e565b60405180910390fd5b5b50565b606060405180602001604052806000815250905090565b6060612d0b82611426565b6000612d15612ce9565b90506000815111612d355760405180602001604052806000815250612d60565b80612d3f846133ab565b604051602001612d5092919061511c565b6040516020818303038152906040525b915050919050565b612d72838361350c565b612d7f600084848461283d565b612dbe576040517f08c379a0000000000000000000000000000000000000000000000000000000008152600401612db5906150c0565b60405180910390fd5b505050565b60007f80ac58cd000000000000000000000000000000000000000000000000000000007bffffffffffffffffffffffffffffffffffffffffffffffffffffffff1916827bffffffffffffffffffffffffffffffffffffffffffffffffffffffff19161480612e8e57507f5b5e139f000000000000000000000000000000000000000000000000000000007bffffffffffffffffffffffffffffffffffffffffffffffffffffffff1916827bffffffffffffffffffffffffffffffffffffffffffffffffffffffff1916145b80612e9e5750612e9d826136e6565b5b9050919050565b612eb0838383613750565b600073ffffffffffffffffffffffffffffffffffffffff168373ffffffffffffffffffffffffffffffffffffffff161415612ef357612eee81613755565b612f32565b8173ffffffffffffffffffffffffffffffffffffffff168373ffffffffffffffffffffffffffffffffffffffff1614612f3157612f30838261379e565b5b5b600073ffffffffffffffffffffffffffffffffffffffff168273ffffffffffffffffffffffffffffffffffffffff161415612f7557612f708161390b565b612fb4565b8273ffffffffffffffffffffffffffffffffffffffff168273ffffffffffffffffffffffffffffffffffffffff1614612fb357612fb282826139dc565b5b5b505050565b612fc583836001613a5b565b612fd0838383613b1b565b505050565b606060006002836002612fe8919061585e565b612ff29190614f20565b67ffffffffffffffff81111561300b5761300a614365565b5b6040519080825280601f01601f19166020018201604052801561303d5781602001600182028036833780820191505090505b5090507f30000000000000000000000000000000000000000000000000000000000000008160008151811061307557613074614ae3565b5b60200101907effffffffffffffffffffffffffffffffffffffffffffffffffffffffffffff1916908160001a9053507f7800000000000000000000000000000000000000000000000000000000000000816001815181106130d9576130d8614ae3565b5b60200101907effffffffffffffffffffffffffffffffffffffffffffffffffffffffffffff1916908160001a90535060006001846002613119919061585e565b6131239190614f20565b90505b60018111156131c3577f3031323334353637383961626364656600000000000000000000000000000000600f86166010811061316557613164614ae3565b5b1a60f81b82828151811061317c5761317b614ae3565b5b60200101907effffffffffffffffffffffffffffffffffffffffffffffffffffffffffffff1916908160001a905350600485901c9450806131bc906158b8565b9050613126565b5060008414613207576040517f08c379a00000000000000000000000000000000000000000000000000000000081526004016131fe9061592e565b60405180910390fd5b8091505092915050565b600061321c82610d4e565b905061322a81600084612413565b613235600083611479565b6001600360008373ffffffffffffffffffffffffffffffffffffffff1673ffffffffffffffffffffffffffffffffffffffff16815260200190815260200160002060008282546132859190614eec565b925050819055506002600083815260200190815260200160002060006101000a81549073ffffffffffffffffffffffffffffffffffffffff021916905581600073ffffffffffffffffffffffffffffffffffffffff168273ffffffffffffffffffffffffffffffffffffffff167fddf252ad1be2c89b69c2b068fc378daa952ba7f163c4a11628f55a4df523b3ef60405160405180910390a461332a8160008461242b565b5050565b6000818361333c9190614eec565b905092915050565b6000806133668561336161335788611e6b565b868863ffffffff16565b613b20565b91509150935093915050565b600081836133809190614f20565b905092915050565b6000808273ffffffffffffffffffffffffffffffffffffffff163b119050919050565b606060008214156133f3576040518060400160405280600181526020017f30000000000000000000000000000000000000000000000000000000000000008152509050613507565b600082905060005b6000821461342557808061340e9061594e565b915050600a8261341e9190615326565b91506133fb565b60008167ffffffffffffffff81111561344157613440614365565b5b6040519080825280601f01601f1916602001820160405280156134735781602001600182028036833780820191505090505b5090505b600085146135005760018261348c9190614eec565b9150600a8561349b9190615997565b60306134a79190614f20565b60f81b8183815181106134bd576134bc614ae3565b5b60200101907effffffffffffffffffffffffffffffffffffffffffffffffffffffffffffff1916908160001a905350600a856134f99190615326565b9450613477565b8093505050505b919050565b600073ffffffffffffffffffffffffffffffffffffffff168273ffffffffffffffffffffffffffffffffffffffff16141561357c576040517f08c379a000000000000000000000000000000000000000000000000000000000815260040161357390615a14565b60405180910390fd5b613585816123a7565b156135c5576040517f08c379a00000000000000000000000000000000000000000000000000000000081526004016135bc90615a80565b60405180910390fd5b6135d160008383612413565b6001600360008473ffffffffffffffffffffffffffffffffffffffff1673ffffffffffffffffffffffffffffffffffffffff16815260200190815260200160002060008282546136219190614f20565b92505081905550816002600083815260200190815260200160002060006101000a81548173ffffffffffffffffffffffffffffffffffffffff021916908373ffffffffffffffffffffffffffffffffffffffff160217905550808273ffffffffffffffffffffffffffffffffffffffff16600073ffffffffffffffffffffffffffffffffffffffff167fddf252ad1be2c89b69c2b068fc378daa952ba7f163c4a11628f55a4df523b3ef60405160405180910390a46136e26000838361242b565b5050565b60007f01ffc9a7000000000000000000000000000000000000000000000000000000007bffffffffffffffffffffffffffffffffffffffffffffffffffffffff1916827bffffffffffffffffffffffffffffffffffffffffffffffffffffffff1916149050919050565b505050565b600e80549050600f600083815260200190815260200160002081905550600e81908060018154018082558091505060019003906000526020600020016000909190919091505550565b600060016137ab84610e00565b6137b59190614eec565b90506000600d600084815260200190815260200160002054905081811461389a576000600c60008673ffffffffffffffffffffffffffffffffffffffff1673ffffffffffffffffffffffffffffffffffffffff168152602001908152602001600020600084815260200190815260200160002054905080600c60008773ffffffffffffffffffffffffffffffffffffffff1673ffffffffffffffffffffffffffffffffffffffff16815260200190815260200160002060008481526020019081526020016000208190555081600d600083815260200190815260200160002081905550505b600d600084815260200190815260200160002060009055600c60008573ffffffffffffffffffffffffffffffffffffffff1673ffffffffffffffffffffffffffffffffffffffff16815260200190815260200160002060008381526020019081526020016000206000905550505050565b60006001600e8054905061391f9190614eec565b90506000600f60008481526020019081526020016000205490506000600e838154811061394f5761394e614ae3565b5b9060005260206000200154905080600e838154811061397157613970614ae3565b5b906000526020600020018190555081600f600083815260200190815260200160002081905550600f600085815260200190815260200160002060009055600e8054806139c0576139bf615aa0565b5b6001900381819060005260206000200160009055905550505050565b60006139e783610e00565b905081600c60008573ffffffffffffffffffffffffffffffffffffffff1673ffffffffffffffffffffffffffffffffffffffff16815260200190815260200160002060008381526020019081526020016000208190555080600d600084815260200190815260200160002081905550505050565b600073ffffffffffffffffffffffffffffffffffffffff168373ffffffffffffffffffffffffffffffffffffffff161415613aab57613aa86133728260096133449092919063ffffffff16565b50505b600073ffffffffffffffffffffffffffffffffffffffff168273ffffffffffffffffffffffffffffffffffffffff161415613afb57613af861332e8260096133449092919063ffffffff16565b50505b613b16613b0784610cb4565b613b1084610cb4565b836125e6565b505050565b505050565b6000806000846000018054905090506000613b3a86611e6b565b9050600082118015613b9057504386600001600184613b599190614eec565b81548110613b6a57613b69614ae3565b5b9060005260206000200160000160009054906101000a900463ffffffff1663ffffffff16145b15613c2057613b9e85613d22565b86600001600184613baf9190614eec565b81548110613bc057613bbf614ae3565b5b9060005260206000200160000160046101000a8154817bffffffffffffffffffffffffffffffffffffffffffffffffffffffff02191690837bffffffffffffffffffffffffffffffffffffffffffffffffffffffff160217905550613d13565b856000016040518060400160405280613c3843613d8d565b63ffffffff168152602001613c4c88613d22565b7bffffffffffffffffffffffffffffffffffffffffffffffffffffffff168152509080600181540180825580915050600190039060005260206000200160009091909190915060008201518160000160006101000a81548163ffffffff021916908363ffffffff16021790555060208201518160000160046101000a8154817bffffffffffffffffffffffffffffffffffffffffffffffffffffffff02191690837bffffffffffffffffffffffffffffffffffffffffffffffffffffffff16021790555050505b80859350935050509250929050565b60007bffffffffffffffffffffffffffffffffffffffffffffffffffffffff8016821115613d85576040517f08c379a0000000000000000000000000000000000000000000000000000000008152600401613d7c90615b41565b60405180910390fd5b819050919050565b600063ffffffff8016821115613dd8576040517f08c379a0000000000000000000000000000000000000000000000000000000008152600401613dcf90615bd3565b60405180910390fd5b819050919050565b828054613dec90614745565b90600052602060002090601f016020900481019282613e0e5760008555613e55565b82601f10613e2757805160ff1916838001178555613e55565b82800160010185558215613e55579182015b82811115613e54578251825591602001919060010190613e39565b5b509050613e629190613ea6565b5090565b508054613e7290614745565b6000825580601f10613e845750613ea3565b601f016020900490600052602060002090810190613ea29190613ea6565b5b50565b5b80821115613ebf576000816000905550600101613ea7565b5090565b6000604051905090565b600080fd5b600080fd5b60007fffffffff0000000000000000000000000000000000000000000000000000000082169050919050565b613f0c81613ed7565b8114613f1757600080fd5b50565b600081359050613f2981613f03565b92915050565b600060208284031215613f4557613f44613ecd565b5b6000613f5384828501613f1a565b91505092915050565b60008115159050919050565b613f7181613f5c565b82525050565b6000602082019050613f8c6000830184613f68565b92915050565b600081519050919050565b600082825260208201905092915050565b60005b83811015613fcc578082015181840152602081019050613fb1565b83811115613fdb576000848401525b50505050565b6000601f19601f8301169050919050565b6000613ffd82613f92565b6140078185613f9d565b9350614017818560208601613fae565b61402081613fe1565b840191505092915050565b600060208201905081810360008301526140458184613ff2565b905092915050565b6000819050919050565b6140608161404d565b811461406b57600080fd5b50565b60008135905061407d81614057565b92915050565b60006020828403121561409957614098613ecd565b5b60006140a78482850161406e565b91505092915050565b600073ffffffffffffffffffffffffffffffffffffffff82169050919050565b60006140db826140b0565b9050919050565b6140eb816140d0565b82525050565b600060208201905061410660008301846140e2565b92915050565b614115816140d0565b811461412057600080fd5b50565b6000813590506141328161410c565b92915050565b6000806040838503121561414f5761414e613ecd565b5b600061415d85828601614123565b925050602061416e8582860161406e565b9150509250929050565b6141818161404d565b82525050565b600060208201905061419c6000830184614178565b92915050565b6000806000606084860312156141bb576141ba613ecd565b5b60006141c986828701614123565b93505060206141da86828701614123565b92505060406141eb8682870161406e565b9150509250925092565b6000819050919050565b614208816141f5565b811461421357600080fd5b50565b600081359050614225816141ff565b92915050565b60006020828403121561424157614240613ecd565b5b600061424f84828501614216565b91505092915050565b614261816141f5565b82525050565b600060208201905061427c6000830184614258565b92915050565b6000806040838503121561429957614298613ecd565b5b60006142a785828601614216565b92505060206142b885828601614123565b9150509250929050565b6000602082840312156142d8576142d7613ecd565b5b60006142e684828501614123565b91505092915050565b6142f881613f5c565b811461430357600080fd5b50565b600081359050614315816142ef565b92915050565b6000806040838503121561433257614331613ecd565b5b600061434085828601614123565b925050602061435185828601614306565b9150509250929050565b600080fd5b600080fd5b7f4e487b7100000000000000000000000000000000000000000000000000000000600052604160045260246000fd5b61439d82613fe1565b810181811067ffffffffffffffff821117156143bc576143bb614365565b5b80604052505050565b60006143cf613ec3565b90506143db8282614394565b919050565b600067ffffffffffffffff8211156143fb576143fa614365565b5b61440482613fe1565b9050602081019050919050565b82818337600083830152505050565b600061443361442e846143e0565b6143c5565b90508281526020810184848401111561444f5761444e614360565b5b61445a848285614411565b509392505050565b600082601f8301126144775761447661435b565b5b8135614487848260208601614420565b91505092915050565b600080600080608085870312156144aa576144a9613ecd565b5b60006144b887828801614123565b94505060206144c987828801614123565b93505060406144da8782880161406e565b925050606085013567ffffffffffffffff8111156144fb576144fa613ed2565b5b61450787828801614462565b91505092959194509250565b600060ff82169050919050565b61452981614513565b811461453457600080fd5b50565b60008135905061454681614520565b92915050565b60008060008060008060c0878903121561456957614568613ecd565b5b600061457789828a01614123565b965050602061458889828a0161406e565b955050604061459989828a0161406e565b94505060606145aa89828a01614537565b93505060806145bb89828a01614216565b92505060a06145cc89828a01614216565b9150509295509295509295565b600067ffffffffffffffff8211156145f4576145f3614365565b5b6145fd82613fe1565b9050602081019050919050565b600061461d614618846145d9565b6143c5565b90508281526020810184848401111561463957614638614360565b5b614644848285614411565b509392505050565b600082601f8301126146615761466061435b565b5b813561467184826020860161460a565b91505092915050565b6000806040838503121561469157614690613ecd565b5b600061469f85828601614123565b925050602083013567ffffffffffffffff8111156146c0576146bf613ed2565b5b6146cc8582860161464c565b9150509250929050565b600080604083850312156146ed576146ec613ecd565b5b60006146fb85828601614123565b925050602061470c85828601614123565b9150509250929050565b7f4e487b7100000000000000000000000000000000000000000000000000000000600052602260045260246000fd5b6000600282049050600182168061475d57607f821691505b6020821081141561477157614770614716565b5b50919050565b7f4552433732313a20617070726f76616c20746f2063757272656e74206f776e6560008201527f7200000000000000000000000000000000000000000000000000000000000000602082015250565b60006147d3602183613f9d565b91506147de82614777565b604082019050919050565b60006020820190508181036000830152614802816147c6565b9050919050565b7f4552433732313a20617070726f76652063616c6c6572206973206e6f7420746f60008201527f6b656e206f776e6572206e6f7220617070726f76656420666f7220616c6c0000602082015250565b6000614865603e83613f9d565b915061487082614809565b604082019050919050565b6000602082019050818103600083015261489481614858565b9050919050565b7f4552433732313a2063616c6c6572206973206e6f7420746f6b656e206f776e6560008201527f72206e6f7220617070726f766564000000000000000000000000000000000000602082015250565b60006148f7602e83613f9d565b91506149028261489b565b604082019050919050565b60006020820190508181036000830152614926816148ea565b9050919050565b7f455243373231456e756d657261626c653a206f776e657220696e646578206f7560008201527f74206f6620626f756e6473000000000000000000000000000000000000000000602082015250565b6000614989602b83613f9d565b91506149948261492d565b604082019050919050565b600060208201905081810360008301526149b88161497c565b9050919050565b7f416363657373436f6e74726f6c3a2063616e206f6e6c792072656e6f756e636560008201527f20726f6c657320666f722073656c660000000000000000000000000000000000602082015250565b6000614a1b602f83613f9d565b9150614a26826149bf565b604082019050919050565b60006020820190508181036000830152614a4a81614a0e565b9050919050565b7f455243373231456e756d657261626c653a20676c6f62616c20696e646578206f60008201527f7574206f6620626f756e64730000000000000000000000000000000000000000602082015250565b6000614aad602c83613f9d565b9150614ab882614a51565b604082019050919050565b60006020820190508181036000830152614adc81614aa0565b9050919050565b7f4e487b7100000000000000000000000000000000000000000000000000000000600052603260045260246000fd5b7f4552433732313a20696e76616c696420746f6b656e2049440000000000000000600082015250565b6000614b48601883613f9d565b9150614b5382614b12565b602082019050919050565b60006020820190508181036000830152614b7781614b3b565b9050919050565b7f4552433732313a2061646472657373207a65726f206973206e6f74206120766160008201527f6c6964206f776e65720000000000000000000000000000000000000000000000602082015250565b6000614bda602983613f9d565b9150614be582614b7e565b604082019050919050565b60006020820190508181036000830152614c0981614bcd565b9050919050565b7f566f7465733a20626c6f636b206e6f7420796574206d696e6564000000000000600082015250565b6000614c46601a83613f9d565b9150614c5182614c10565b602082019050919050565b60006020820190508181036000830152614c7581614c39565b9050919050565b7f566f7465733a207369676e617475726520657870697265640000000000000000600082015250565b6000614cb2601883613f9d565b9150614cbd82614c7c565b602082019050919050565b60006020820190508181036000830152614ce181614ca5565b9050919050565b6000608082019050614cfd6000830187614258565b614d0a60208301866140e2565b614d176040830185614178565b614d246060830184614178565b95945050505050565b7f566f7465733a20696e76616c6964206e6f6e6365000000000000000000000000600082015250565b6000614d63601483613f9d565b9150614d6e82614d2d565b602082019050919050565b60006020820190508181036000830152614d9281614d56565b9050919050565b7f4552433732313a207472616e736665722066726f6d20696e636f72726563742060008201527f6f776e6572000000000000000000000000000000000000000000000000000000602082015250565b6000614df5602583613f9d565b9150614e0082614d99565b604082019050919050565b60006020820190508181036000830152614e2481614de8565b9050919050565b7f4552433732313a207472616e7366657220746f20746865207a65726f2061646460008201527f7265737300000000000000000000000000000000000000000000000000000000602082015250565b6000614e87602483613f9d565b9150614e9282614e2b565b604082019050919050565b60006020820190508181036000830152614eb681614e7a565b9050919050565b7f4e487b7100000000000000000000000000000000000000000000000000000000600052601160045260246000fd5b6000614ef78261404d565b9150614f028361404d565b925082821015614f1557614f14614ebd565b5b828203905092915050565b6000614f2b8261404d565b9150614f368361404d565b9250827fffffffffffffffffffffffffffffffffffffffffffffffffffffffffffffffff03821115614f6b57614f6a614ebd565b5b828201905092915050565b7f436865636b706f696e74733a20626c6f636b206e6f7420796574206d696e6564600082015250565b6000614fac602083613f9d565b9150614fb782614f76565b602082019050919050565b60006020820190508181036000830152614fdb81614f9f565b9050919050565b7f4552433732313a20617070726f766520746f2063616c6c657200000000000000600082015250565b6000615018601983613f9d565b915061502382614fe2565b602082019050919050565b600060208201905081810360008301526150478161500b565b9050919050565b7f4552433732313a207472616e7366657220746f206e6f6e20455243373231526560008201527f63656976657220696d706c656d656e7465720000000000000000000000000000602082015250565b60006150aa603283613f9d565b91506150b58261504e565b604082019050919050565b600060208201905081810360008301526150d98161509d565b9050919050565b600081905092915050565b60006150f682613f92565b61510081856150e0565b9350615110818560208601613fae565b80840191505092915050565b600061512882856150eb565b915061513482846150eb565b91508190509392505050565b7f45524337323155524953746f726167653a2055524920736574206f66206e6f6e60008201527f6578697374656e7420746f6b656e000000000000000000000000000000000000602082015250565b600061519c602e83613f9d565b91506151a782615140565b604082019050919050565b600060208201905081810360008301526151cb8161518f565b9050919050565b7f416363657373436f6e74726f6c3a206163636f756e7420000000000000000000600082015250565b60006152086017836150e0565b9150615213826151d2565b601782019050919050565b7f206973206d697373696e6720726f6c6520000000000000000000000000000000600082015250565b60006152546011836150e0565b915061525f8261521e565b601182019050919050565b6000615275826151fb565b915061528182856150eb565b915061528c82615247565b915061529882846150eb565b91508190509392505050565b600060a0820190506152b96000830188614258565b6152c66020830187614258565b6152d36040830186614258565b6152e06060830185614178565b6152ed60808301846140e2565b9695505050505050565b7f4e487b7100000000000000000000000000000000000000000000000000000000600052601260045260246000fd5b60006153318261404d565b915061533c8361404d565b92508261534c5761534b6152f7565b5b828204905092915050565b7f5061757361626c653a206e6f7420706175736564000000000000000000000000600082015250565b600061538d601483613f9d565b915061539882615357565b602082019050919050565b600060208201905081810360008301526153bc81615380565b9050919050565b60006040820190506153d86000830185614178565b6153e56020830184614178565b9392505050565b7f5061757361626c653a2070617573656400000000000000000000000000000000600082015250565b6000615422601083613f9d565b915061542d826153ec565b602082019050919050565b6000602082019050818103600083015261545181615415565b9050919050565b600081519050919050565b600082825260208201905092915050565b600061547f82615458565b6154898185615463565b9350615499818560208601613fae565b6154a281613fe1565b840191505092915050565b60006080820190506154c260008301876140e2565b6154cf60208301866140e2565b6154dc6040830185614178565b81810360608301526154ee8184615474565b905095945050505050565b60008151905061550881613f03565b92915050565b60006020828403121561552457615523613ecd565b5b6000615532848285016154f9565b91505092915050565b7f1901000000000000000000000000000000000000000000000000000000000000600082015250565b60006155716002836150e0565b915061557c8261553b565b600282019050919050565b6000819050919050565b6155a261559d826141f5565b615587565b82525050565b60006155b382615564565b91506155bf8285615591565b6020820191506155cf8284615591565b6020820191508190509392505050565b6155e881614513565b82525050565b60006080820190506156036000830187614258565b61561060208301866155df565b61561d6040830185614258565b61562a6060830184614258565b95945050505050565b7f4e487b7100000000000000000000000000000000000000000000000000000000600052602160045260246000fd5b7f45434453413a20696e76616c6964207369676e61747572650000000000000000600082015250565b6000615698601883613f9d565b91506156a382615662565b602082019050919050565b600060208201905081810360008301526156c78161568b565b9050919050565b7f45434453413a20696e76616c6964207369676e6174757265206c656e67746800600082015250565b6000615704601f83613f9d565b915061570f826156ce565b602082019050919050565b60006020820190508181036000830152615733816156f7565b9050919050565b7f45434453413a20696e76616c6964207369676e6174757265202773272076616c60008201527f7565000000000000000000000000000000000000000000000000000000000000602082015250565b6000615796602283613f9d565b91506157a18261573a565b604082019050919050565b600060208201905081810360008301526157c581615789565b9050919050565b7f45434453413a20696e76616c6964207369676e6174757265202776272076616c60008201527f7565000000000000000000000000000000000000000000000000000000000000602082015250565b6000615828602283613f9d565b9150615833826157cc565b604082019050919050565b600060208201905081810360008301526158578161581b565b9050919050565b60006158698261404d565b91506158748361404d565b9250817fffffffffffffffffffffffffffffffffffffffffffffffffffffffffffffffff04831182151516156158ad576158ac614ebd565b5b828202905092915050565b60006158c38261404d565b915060008214156158d7576158d6614ebd565b5b600182039050919050565b7f537472696e67733a20686578206c656e67746820696e73756666696369656e74600082015250565b6000615918602083613f9d565b9150615923826158e2565b602082019050919050565b600060208201905081810360008301526159478161590b565b9050919050565b60006159598261404d565b91507fffffffffffffffffffffffffffffffffffffffffffffffffffffffffffffffff82141561598c5761598b614ebd565b5b600182019050919050565b60006159a28261404d565b91506159ad8361404d565b9250826159bd576159bc6152f7565b5b828206905092915050565b7f4552433732313a206d696e7420746f20746865207a65726f2061646472657373600082015250565b60006159fe602083613f9d565b9150615a09826159c8565b602082019050919050565b60006020820190508181036000830152615a2d816159f1565b9050919050565b7f4552433732313a20746f6b656e20616c7265616479206d696e74656400000000600082015250565b6000615a6a601c83613f9d565b9150615a7582615a34565b602082019050919050565b60006020820190508181036000830152615a9981615a5d565b9050919050565b7f4e487b7100000000000000000000000000000000000000000000000000000000600052603160045260246000fd5b7f53616665436173743a2076616c756520646f65736e27742066697420696e203260008201527f3234206269747300000000000000000000000000000000000000000000000000602082015250565b6000615b2b602783613f9d565b9150615b3682615acf565b604082019050919050565b60006020820190508181036000830152615b5a81615b1e565b9050919050565b7f53616665436173743a2076616c756520646f65736e27742066697420696e203360008201527f3220626974730000000000000000000000000000000000000000000000000000602082015250565b6000615bbd602683613f9d565b9150615bc882615b61565b604082019050919050565b60006020820190508181036000830152615bec81615bb0565b905091905056fea264697066735822122010583d216ef3c1f06a9a07b29f3676541b681eddcc1a7065023e15451486069864736f6c63430008090033",
  "linkReferences": {},
  "deployedLinkReferences": {}
}